:100000000C94A6000C94C5000C94C5000C94C5007B
:100010000C94C5000C94C5000C94C5000C94C5004C
:100020000C94C5000C94C5000C94C5000C94C5003C
:100030000C94C5000C94C5000C9436060C94C500B5
:100040000C94CD000C94C5000C94C5000C94C50014
:100050000C94C5000C94DA050C94C5000C94C500F2
:100060000C94C5000C94C5000C94C5000C94C500FC
:100070000C94C5000C94C5000C94C5000C94C500EC
:100080000C94C5000C94C5000C94C500076342365F
:10009000B79BD8A71A39685618AEBAAB558C1D3C19
:1000A000B7CC5763BD6DEDFD753EF6177231BF00DD
:1000B0000000803F08000000BE922449123EABAA17
:1000C000AA2ABECDCCCC4C3E00000080BEABAAAA72
:1000D000AA3E00000000BF000000803F00000000BA
:1000E00000084178D3BB4387D1133D190E3CC3BDF3
:1000F0004282AD2B3E68EC8276BED98FE1A93E4CA0
:1001000080EFFFBE01C4FF7F3F00000000004E41B2
:1001100053544157494F4E4120574152544F534336
:10012000005753502E20575950454C3A0025005A3D
:100130004D4945525A4F4E4120574152544F534317
:100140000050524144553A006D41000011241FBE39
:10015000CFEFD0E1DEBFCDBF12E0A0E0B1E0ECE92F
:10016000FFE100E00BBF02C007900D92A031B10784
:10017000D9F712E0A0E1B2E001C01D92A632B107AA
:10018000E1F70E949F010C94CC0F0C94000087E0D3
:1001900083BF12BE81E087BF08951F920F920FB6F2
:1001A0000F9211242F933F934F938F939F937894A3
:1001B0008091250223B3999B02C040E001C042E038
:1001C0009A9B02C030E001C034E09B9B02C090E0EB
:1001D00001C098E0209521708295807F282B242BE8
:1001E000232B292B20932502809123029091240216
:1001F00034E0880F991F3A95E1F790932402809399
:10020000230220FF1DC024FD05C0809123028160D0
:10021000809323028091240284FF18C081E08093A0
:1002200010029C9905C080911402815080931402A1
:100230009C9B0CC0809114028F5F8093140206C0B7
:100240008E7E9E7E909324028093230221FF0FC016
:1002500025FD05C080912302826080932302809156
:10026000240285FF0EC081E0809311020AC08091B4
:100270002302909124028D7D9D7D90932402809392
:10028000230222FF0FC026FD05C080912302846057
:10029000809323028091240286FF0EC081E0809328
:1002A00012020AC080912302909124028B7B9B7BD7
:1002B000909324028093230223FF0FC027FD05C0E3
:1002C000809123028860809323028091240287FF1B
:1002D0000EC081E0809313020AC0809123029091A6
:1002E000240287779777909324028093230280914A
:1002F000150290911602CD9749F4109216021092B1
:100300001502809117028F5F809317028091170268
:10031000823010F01092170280911502909116020F
:10032000019690931602809315029F918F914F91A1
:100330003F912F910F900FBE0F901F9018950F9324
:100340001F938FEF809325021092240210922302B4
:100350000E94DA020E94D70587E083BF12BE81E0C7
:1003600087BF0E9428060E94EC030E9456037894DF
:100370000E94730503E019E08091140287FF02C018
:100380000093140280911402843014F0109214022D
:1003900080911402882361F48091200280931D02D1
:1003A0008091210280931E028091220280931F027D
:1003B00080911402813061F0823024F4882309F4A2
:1003C0007AC07BC0823061F1833009F076C04DC0C5
:1003D00080911102813059F4809120028F5F8093C7
:1003E0002002823014F0109220021092110290919B
:1003F0001202913059F480912002815080932002A2
:1004000087FF02C090932002109212028091200276
:10041000813009F050C010922102109222024BC08C
:1004200080911102813079F480912002882359F45F
:10043000809121028F5F809321028A3014F0109204
:10044000210210921102809112028130A1F5809157
:100450002002882381F5809121028150809321021E
:1004600087FF27C01093210224C0809111028130A0
:1004700079F480912002882359F4809122028F5FC1
:10048000809322028A3014F01092220210921102FC
:1004900080911202813079F480912002882359F4EE
:1004A0008091220281508093220287FF02C0109324
:1004B0002202109212020E94AF0580911302813035
:1004C00009F05ACF1092140280911D0280932002ED
:1004D00080911E028093210280911F02809322024C
:1004E0001092130249CF3F924F925F926F927F9288
:1004F0008F929F92AF92BF92CF92DF92EF92FF9234
:100500000F931F93CF93DF93382E3B01C0E0D0E0D1
:1005100088249924432C552433C0B20168197909E1
:10052000882777FD8095982F0E9441099B01AC0197
:1005300060E070E080E291E40E94ED0C7B018C01B0
:10054000BE0180E090E00E94F3095B016C01F301C1
:1005500061913F01772767FD7095872F972F0E9444
:1005600041099B01AC01C801B7010E9417089B011A
:10057000AC01C601B5010E94EA070E944106EB01E9
:100580000894811C911C882D8150831530F2CE0176
:10059000DF91CF911F910F91FF90EF90DF90CF905F
:1005A000BF90AF909F908F907F906F905F904F9093
:1005B0003F90089587B3806F87BB84B3807F84BBEF
:1005C00084B38F7084BB8FEF81BB82B18C6182B9A1
:1005D00008951C9A1A9811BA1B9A00000000000096
:1005E00000000000000080B31B9800000000000025
:1005F00087FDF2CF8FEF81BB08951F93182F0E94C4
:10060000E9021A9A1C981B9A12BB00000000000015
:100610000000000000001B981F9108951F93182FE1
:100620000E94E90283B18B7E83B91B9A12BB000042
:10063000000000000000000000001B981F910895BA
:1006400093B19B7E93B91B9A82BB0000000000000F
:100650000000000000001B980895AF92CF92DF9237
:10066000EF92FF920F931F93162FF42ED22E0E941B
:10067000FD02812F0E94FD028F2D0E94FD028D2D13
:100680000E94FD02802F0E94FD028E2D0E94FD021D
:100690008C2D0E94FD028A2D0E94FD021F910F9158
:1006A000FF90EF90DF90CF90AF900895AF92CF92F0
:1006B000EF920F931F93CF93DF93C0E0D1E010E44C
:1006C000812F0E940E038881853A51F48EE061E10A
:1006D00041E121E10FE1A1E1EA2EF1E1CF2E13C0CA
:1006E000863C31F482E06EE045E120E100E129C082
:1006F0008A3C61F48FE160E140E12EE100E1E0E15C
:10070000EE2E7FE1C72E52E0A52E44C0833A31F48D
:1007100080E160E142E124E108E12BC0813D51F438
:1007200082E065E149E125E103E131E1E32E91E178
:10073000C92E23C0833D51F482E06EE045E121E102
:1007400001E1B1E1EB2EAEE0CA2E17C08C3851F4B6
:1007500082E06EE040E12EE001E0EE24E394FEE171
:10076000CF2E0BC08F3A59F48FE161E042E02FE1C8
:1007700008E0E0E1EE2E7FE1C72EAA240BC085E160
:100780006AE045E12AE005E15AE0E52E35E1C32EB5
:100790009AE0A92E0E942D03185F2196103809F0C7
:1007A0008FCFDF91CF911F910F91EF90CF90AF90AE
:1007B0000895282F87FF0CC0E0E0F1E090E08081F1
:1007C000281711F4292F04C09F5F31969830B9F78C
:1007D000822F0E94FD02089520E931E040E951E0B6
:1007E000CA010197F1F721503040D1F788E30E9408
:1007F000200380E190E40197F1F788E30E94200351
:1008000080E991E00197F1F788E30E94200385ECED
:100810008A95F1F788E30E940E0388E00E940E0398
:1008200081E00E940E0386E00E940E038CE00E948D
:100830000E030895823069F0833018F4813091F40A
:1008400005C0833049F0843069F409C0862F815097
:100850000895862F815C0895862F8D5E0895862FDA
:100860008D5A0895862F81500895EF92FF921F931D
:10087000DF93CF930F92CDB7DEB77A010E941A04AF
:1008800080680E940E0310E003C089810E94D90392
:10089000F701E10FF11D1F5FE491E983898188234E
:1008A000A1F70F90CF91DF911F91FF90EF900895E6
:1008B0001F93CF93DF93182F392FEA01262F14C0EF
:1008C000FE01E20FF11D3197812F932F6AE070E056
:1008D0000E94800C8083812F932F6AE070E00E9439
:1008E000800C162F372F2150222351F7DF91CF9103
:1008F0001F910895AF92BF92CF92DF92EF92FF9235
:100900000F931F93DF93CF9300D000D00F92CDB7FA
:10091000DEB77A01B22EA02E0E941A0480680E94CF
:100920000E03F7FC02C0CC2406C0F094E194F10859
:10093000F394CC24C3946A2D6B0DC7018E010F5F15
:100940001F4FA8010E9458047801DD24D39401E0D0
:1009500010E01FC0F70180810115110589F01816FC
:100960008CF4CC2011F08DE201C080E20E94FD02E7
:10097000F7018081805D0E94FD0200E010E005C06B
:10098000805D01C080E20E94FD02D3940894E11CC6
:10099000F11CDB14F8F2012B39F0CC2011F08DE2C0
:1009A00001C080E20E94FD02EB2CFF24FE01EE0D4F
:1009B000FF1D8081805D0E94FD02AA20A1F08EE2D1
:1009C0000E94FD021B2D1F5FEA0CF11C07C0EC0FFB
:1009D000FD1F8081805D0E94FD021F5FE12FF0E01E
:1009E000EE16FF06A4F70F900F900F900F900F9048
:1009F000CF91DF911F910F91FF90EF90DF90CF90FB
:100A0000BF90AF9008950F931F93CF93DF93EA01A8
:100A1000022F0E941A04182F80911402813041F194
:100A200082301CF4882339F059C0823091F1833030
:100A300009F054C040C08091180290E063E0AE011C
:100A40000E945804812F80680E940E03809120022A
:100A5000882311F0805D01C080E20E94FD02809138
:100A60002002882391F480912102882371F41CC014
:100A7000812F80680E940E03013021F480912002B2
:100A8000805D01C080E20E94FD0280912102805DB4
:100A90000CC0812F80680E940E0380912002805D2F
:100AA0000E94FD02013089F380E20E94FD028091E4
:100AB0002202805D11C0812F80680E940E03809108
:100AC0002002805D0E94FD0280912102805D0E94D3
:100AD000FD02013061F380E20E94FD02DF91CF91BF
:100AE0001F910F9108950F9381E00E940E0381E002
:100AF00062E04EE051E00E94350482E062E041E2B3
:100B000051E00E9435044091180282E06EE050E00E
:100B100023E000E00E947A0482E063E14DE251E0CC
:100B20000E94350483E062E04FE251E00E94350408
:100B300084E064E041E451E00E94350440911902F0
:100B400050911A0284E06AE023E00E947A0484E073
:100B50006FE048E451E00E9435040F9108950F932F
:100B60002091170282E06FE040E252E00E9403050C
:100B70004091190250911A0284E06AE023E000E0FB
:100B80000E947A040F9108950F931F938C0120E027
:100B900030E0CB01BA01A90198010E94610CAC01BF
:100BA000DA0177FD1196CD011F910F9108958FED18
:100BB00086B908951F920F920FB60F920BB60F923F
:100BC00011242F933F934F935F936F937F938F9352
:100BD0009F93AF93BF93EF93FF9384B195B19370BD
:100BE0009C01220F331F30931C0220931B02909311
:100BF0001A028093190283E060E272E00E9473029D
:100C00008093180290E0A0E0B0E0BC01CD012FEF8E
:100C100033E040E050E00E94610C24E630E040E028
:100C200050E00E94940C3BBD2ABDFF91EF91BF9113
:100C3000AF919F918F917F916F915F914F913F9174
:100C40002F910F900BBE0F900FBE0F901F90189515
:100C500083E88FBD81E08EBD1DBC1CBC1BBC1ABCD3
:100C600087B7846087BF8FEF86BF08951F920F926A
:100C70000FB60F921124369A0F900FBE0F901F904F
:100C80001895EF92FF920F931F937B018C0120E048
:100C900030E040E05FE40E94110988238CF0C80135
:100CA000B70120E030E040E05FE40E94B9070E9415
:100CB0009F099B01AC01205030404040504806C085
:100CC000C801B7010E949F099B01AC01B901CA018B
:100CD0001F910F91FF90EF900895A0E0B0E0E3E73F
:100CE000F6E00C94B60CDC012B01FA019C919230D9
:100CF00008F439C1EB018881823008F433C19430A3
:100D000069F4843009F02FC111969C911197898163
:100D1000981709F428C1A8E0B1E025C1843009F48E
:100D200021C18230A9F4923009F01DC19A01AD01B0
:100D300088E0EA010990AE01E90109929E01815023
:100D4000C1F7E201898111969C918923818308C1B1
:100D5000923009F407C112962D903C901397EB0145
:100D60008A819B811496AD90BD90CD90DC901797B1
:100D7000EC80FD800E811F819101281B390BB90188
:100D800037FF04C066277727621B730B603271053B
:100D90000CF061C0121613066CF537014801062EDF
:100DA00004C096948794779467940A94D2F721E0CC
:100DB00030E040E050E004C0220F331F441F551FB5
:100DC0006A95D2F721503040404050402E213F21BB
:100DD00040235123211531054105510521F021E022
:100DE00030E040E050E079018A01E628F728082940
:100DF00019293CC0232BD1F1260E371E350146019F
:100E0000062E04C096948794779467940A94D2F738
:100E100021E030E040E050E004C0220F331F441FC7
:100E2000551F6A95D2F721503040404050402A214A
:100E30003B214C215D21211531054105510521F052
:100E400021E030E040E050E059016A01A628B728CF
:100E5000C828D9280BC0821593052CF01C01AA24A0
:100E6000BB24650103C0EE24FF24870111969C91E9
:100E7000D20111968C91981709F445C0992339F045
:100E8000A80197012A193B094C095D0906C0A60172
:100E900095012E193F09400B510B57FD08C01182D7
:100EA0003382228224833583468357831DC081E0A9
:100EB00081833382228288279927DC01821B930B4E
:100EC000A40BB50B84839583A683B7830DC0220F33
:100ED000331F441F551F24833583468357838281E4
:100EE0009381019793838283248135814681578141
:100EF000DA01C9010197A109B1098F5F9F4FAF4F77
:100F0000BF4328F30BC0918333822282EA0CFB1C7F
:100F10000C1D1D1DE482F5820683178383E0808308
:100F2000248135814681578157FF1AC0C901AA27FC
:100F300097FDA095BA2F81709070A070B0705695F3
:100F4000479537952795822B932BA42BB52B84831C
:100F50009583A683B783828193810196938382834D
:100F6000DF0101C0D201CD01CDB7DEB7E2E10C94C3
:100F7000D20CA0E2B0E0EFEBF7E00C94C20C698376
:100F80007A838B839C832D833E834F835887E9E04C
:100F9000EE2EF12CEC0EFD1ECE010196B7010E9443
:100FA000900B8E010F5E1F4FCE010596B8010E9477
:100FB000900B8A8991E089278A8BC701B801AE011D
:100FC000475E5F4F0E946D060E94BB0AA096E6E056
:100FD0000C94DE0CA0E2B0E0E0EFF7E00C94C20C61
:100FE00069837A838B839C832D833E834F835887C9
:100FF000F9E0EF2EF12CEC0EFD1ECE010196B701AB
:101000000E94900B8E010F5E1F4FCE010596B80116
:101010000E94900BC701B801AE01475E5F4F0E946E
:101020006D060E94BB0AA096E6E00C94DE0CA0E2DE
:10103000B0E0EDE1F8E00C94B60C69837A838B8321
:101040009C832D833E834F835887CE010196BE013A
:10105000675F7F4F0E94900BCE010596BE016F5EC9
:101060007F4F0E94900B9985923088F08989823059
:10107000C8F0943019F4823051F404C0843029F45B
:10108000923081F488E091E0C6C0923049F420E0CB
:101090009A858A89981321E02A87CE010996BBC0D8
:1010A000823049F420E09A858A89981321E02A8BBE
:1010B000CE014196B0C02D843E844F8458886D88FF
:1010C0007E888F88988CEE24FF248701AA24BB2475
:1010D000650140E050E060E070E0E0E0F0E0C10178
:1010E00081709070892BE9F0E60CF71C081D191D22
:1010F0009A01AB012A0D3B1D4C1D5D1D80E090E067
:10110000A0E0B0E0E614F7040805190520F481E03A
:1011100090E0A0E0B0E0BA01A901480F591F6A1F92
:101120007B1FAA0CBB1CCC1CDD1C97FE08C081E0F9
:1011300090E0A0E0B0E0A82AB92ACA2ADB2A3196BA
:10114000E032F10549F0660C771C881C991C569416
:10115000479437942794C3CFFA85EA892B893C8931
:101160008B859C85280F391F2E5F3F4F17C0CA0102
:1011700081709070892B61F016950795F794E7942C
:1011800080E090E0A0E0B0E8E82AF92A0A2B1B2BC7
:1011900076956795579547952F5F3F4F77FDE7CF3A
:1011A0000CC0440F551F661F771F17FD4160EE0CE2
:1011B000FF1C001F111F21503040403090E05907A4
:1011C00090E0690790E4790760F32B8F3C8FDB0197
:1011D000CA018F779070A070B07080349105A1051E
:1011E000B10561F447FD0AC0E114F10401051105E0
:1011F00029F0405C5F4F6F4F7F4F40781A8EFE178B
:1012000011F081E08A8F4D8F5E8F6F8F78A383E01E
:10121000898FCE0149960E94BB0AA096E2E10C9408
:10122000D20CA8E1B0E0E7E1F9E00C94C20C6983CC
:101230007A838B839C832D833E834F83588789E0F9
:10124000E82EF12CEC0EFD1ECE010196B7010E9496
:10125000900B8E010F5E1F4FCE010596B8010E94C4
:10126000900B8985823040F08989823028F0C7014F
:10127000B8010E94080C01C08FEF6896E6E00C945C
:10128000DE0CA8E0B0E0E7E4F9E00C94BF0C9B01B1
:10129000AC0183E08983DA01C9018827B7FD839512
:1012A0009927AA27BB27B82E2115310541055105DD
:1012B00019F482E089833AC08823A9F0203080E0C5
:1012C000380780E0480780E8580729F460E070E0BC
:1012D00080E09FEC30C0EE24FF248701E21AF30A7D
:1012E000040B150B02C079018A018EE1C82ED12CA6
:1012F000DC82CB82ED82FE820F831887C801B701A2
:101300000E946C0A01971816190684F4082E04C06E
:10131000EE0CFF1C001F111F0A94D2F7ED82FE8213
:101320000F831887C81AD90ADC82CB82BA82CE0111
:1013300001960E94BB0A2896E9E00C94DB0CACE015
:10134000B0E0E5EAF9E00C94C60C69837A838B83FC
:101350009C83CE010196BE016B5F7F4F0E94900B74
:101360008D81823061F1823050F1843021F48E81A0
:10137000882351F12EC02F81388537FD20C06E8122
:101380002F3131051CF06623F9F023C08EE190E087
:10139000821B930B29853A854B855C8504C0569545
:1013A0004795379527958A95D2F76623B1F05095E2
:1013B0004095309521953F4F4F4F5F4F0EC020E035
:1013C00030E040E050E009C02FEF3FEF4FEF5FE724
:1013D00004C020E030E040E050E8B901CA012C969A
:1013E000E2E00C94E20CA8E0B0E0E9EFF9E00C9444
:1013F000BE0C7B018C01611571058105910519F405
:1014000082E0898360C083E089838EE1C82ED12C7D
:10141000DC82CB82ED82FE820F831887C801B70180
:101420000E946C0AFC013197F7FF3BC0222733274B
:101430002E1B3F0B57016801022E04C0D694C7949F
:10144000B794A7940A94D2F740E050E060E070E0CF
:1014500081E090E0A0E0B0E004C0880F991FAA1FCF
:10146000BB1F2A95D2F70197A109B1098E219F21AF
:10147000A023B1230097A105B10521F041E050E080
:1014800060E070E04A295B296C297D294D835E83E9
:101490006F8378878EE190E08E1B9F0B9C838B83FC
:1014A00012C0309781F00E2E04C0EE0CFF1C001FFE
:1014B000111F0A94D2F7ED82FE820F831887CE1A8D
:1014C000DF0ADC82CB821A82CE0101960E94BB0A1F
:1014D0002896EAE00C94DA0CEF92FF920F931F9398
:1014E0007B018C0180E0E81680E0F80681E00807C7
:1014F00080E0180788F48FEFE816F1040105110564
:1015000031F028F088E090E0A0E0B0E017C080E083
:1015100090E0A0E0B0E012C080E0E81680E0F806BD
:1015200080E0080781E0180728F088E190E0A0E05B
:10153000B0E004C080E190E0A0E0B0E020E230E064
:1015400040E050E0281B390B4A0B5B0B04C016959A
:101550000795F794E7948A95D2F7F701E05FFE4F7D
:101560008081281B310941095109C9011F910F913F
:10157000FF90EF900895DF92EF92FF920F931F93E9
:10158000FC01E480F58006811781D1808081823062
:1015900048F480E090E0A0E1B0E0E82AF92A0A2BC4
:1015A0001B2BA5C0843009F49FC0823021F4EE24A7
:1015B000FF24870105C0E114F1040105110519F4A8
:1015C000E0E0F0E096C0628173819FEF62387907B6
:1015D0000CF05BC022E83FEF261B370B2A313105A8
:1015E0002CF020E030E040E050E02AC0B801A70134
:1015F000022E04C076956795579547950A94D2F7C1
:1016000081E090E0A0E0B0E004C0880F991FAA1F1D
:10161000BB1F2A95D2F70197A109B1098E219F21FD
:10162000A023B1230097A105B10521F081E090E04E
:10163000A0E0B0E09A01AB01282B392B4A2B5B2BA1
:10164000DA01C9018F779070A070B0708034910575
:10165000A105B10539F427FF09C0205C3F4F4F4F6A
:101660005F4F04C0215C3F4F4F4F5F4FE0E0F0E021
:101670002030A0E03A07A0E04A07A0E45A0710F0A3
:10168000E1E0F0E079018A0127C06038710564F576
:10169000FB01E158FF4FD801C7018F779070A07010
:1016A000B07080349105A105B10539F4E7FE0DC095
:1016B00080E490E0A0E0B0E004C08FE390E0A0E020
:1016C000B0E0E80EF91E0A1F1B1F17FF05C0169594
:1016D0000795F794E794319687E016950795F79468
:1016E000E7948A95D1F705C0EE24FF248701EFEF38
:1016F000F0E06E2F679566276795902F9F77D794B8
:10170000DD24D7948E2F8695492F462B582F5D299F
:10171000B701CA011F910F91FF90EF90DF900895DC
:10172000FC01DB01408151812281622F6F7770E0E3
:10173000221F2227221F9381892F880F822B282F77
:1017400030E0991F9927991F11969C9311972115A5
:101750003105A9F5411551056105710511F482E0C6
:1017600037C082E89FEF13969C938E9312979A014D
:10177000AB0167E0220F331F441F551F6A95D1F755
:1017800083E08C930DC0220F331F441F551F129608
:101790008D919C911397019713969C938E9312971A
:1017A000203080E0380780E0480780E4580758F38D
:1017B00014962D933D934D935C93179708952F3F67
:1017C000310579F4411551056105710519F484E07D
:1017D0008C93089564FF03C081E08C9312C01C9227
:1017E00010C02F57304013963C932E93129783E0EE
:1017F0008C9387E0440F551F661F771F8A95D1F79A
:10180000706414964D935D936D937C931797089530
:101810001F93DC01FB019C91923008F447C080814A
:10182000823008F443C0943051F411961C918430F6
:1018300099F58181682F70E0611B71093FC0843088
:1018400021F0923031F48230B9F18181882389F11D
:101850002DC011961C9111978230F1F081811817DB
:10186000D9F412962D913C9113978281938182171E
:10187000930794F028173907BCF014968D919D9129
:101880000D90BC91A02D2481358146815781281768
:1018900039074A075B0718F4112341F00AC0821781
:1018A0009307A407B50740F4112319F061E070E035
:1018B00005C06FEF7FEF02C060E070E0CB011F91C9
:1018C0000895629FD001739FF001829FE00DF11D8A
:1018D000649FE00DF11D929FF00D839FF00D749FAA
:1018E000F00D659FF00D9927729FB00DE11DF91F56
:1018F000639FB00DE11DF91FBD01CF0111240895B3
:10190000AA1BBB1B51E107C0AA1FBB1FA617B70725
:1019100010F0A61BB70B881F991F5A95A9F7809541
:101920009095BC01CD010895A1E21A2EAA1BBB1B04
:10193000FD010DC0AA1FBB1FEE1FFF1FA217B3079B
:10194000E407F50720F0A21BB30BE40BF50B661FB1
:10195000771F881F991F1A9469F760957095809575
:1019600090959B01AC01BD01CF0108952F923F924C
:101970004F925F926F927F928F929F92AF92BF929F
:10198000CF92DF92EF92FF920F931F93CF93DF934B
:10199000CDB7DEB7CA1BDB0B0FB6F894DEBF0FBEA8
:1019A000CDBF09942A88398848885F846E847D84F5
:1019B0008C849B84AA84B984C884DF80EE80FD80F7
:1019C0000C811B81AA81B981CE0FD11D0FB6F8946D
:1019D000DEBF0FBECDBFED010895FA01EE0FFF1F70
:1019E00030962105310599F16115710561F4803852
:1019F000BFE39B0749F168949038810561F0803816
:101A0000BFEF9B0741F0992342F5FF3FE105310508
:101A1000210511F1E8940894E795D901AA2329F446
:101A2000AB2FBE2FF85FD0F310C0FF5F70F4A69508
:101A3000E0F7F73950F019F0FF3A38F49F779F93A9
:101A40000CD00F9007FC905808953EF049C060E01C
:101A500070E080E89FE308954FE79F775F934F938F
:101A60003F932F93D0D02F913F914F915F91DFDA29
:101A700005C019F40EF02EC07DC032C061D0C8F38D
:101A80009638C0F707F80F92E8942BE33AEA48EB50
:101A90005FE738D10F920F920F924DB75EB70F925A
:101AA000F2D0ECE8F0E01FD04F915F91EF91FF9101
:101AB000E595EE1FFF1F49F0FE57E0684427EE0F43
:101AC000441FFA95E1F74195550B64D00F9007FE3E
:101AD00058C0089597F99F6780E870E060E0089526
:101AE0009FEF80EC0895DF93CF931F930F93FF92A6
:101AF000EF92DF927B018C01689405C0DA2EEF0132
:101B0000FFD0FE01E894A59125913591459155911D
:101B1000AEF3EF0159D1FE019701A801DA9479F7EC
:101B2000DF90EF90FF900F911F91CF91DF9108957B
:101B300057FD9058440F551F59F05F3F71F047957E
:101B4000880F97FB991F61F09F3F79F08795089563
:101B5000121613061406551FF2CF4695F1DF08C082
:101B6000161617061806991FF1CF8695710561059F
:101B700008940895E894BB2766277727CB0197F947
:101B800008959B01AC0160E070E080E89FE36FC1C5
:101B9000A1CFD5C1D5DFE8F39923D9F3940F511D17
:101BA000BBF39150504094F059F0882332F0660F07
:101BB000771F881F91505040C1F79E3F510544F751
:101BC000880F911D9695879597F908955F3FACF022
:101BD000983E9CF0BB27869577956795B79508F456
:101BE000B1609395C1F7BB0F58F711F460FFE8CFD0
:101BF0006F5F7F4F8F4F9F4FE3CFBDCF0EF09FC1E1
:101C00006FCF689467CF9CDFC8F39923D1F3C6F3F5
:101C1000DF93CF931F930F93FF92C92FDD27882364
:101C20002AF02197660F771F881FDAF720E030E04F
:101C300040E85FEB9FE3883920F0803E30F021964A
:101C40008F77C8D9E4EBF0E003C0C4D9E1EEF0E04F
:101C50004ADF8B01BE01EC01FB2E6F5771097595B0
:101C6000771F880B990B0DDB28E132E741E35FE337
:101C700047D0AF2D9801AE01FF900F911F91CF91EA
:101C8000DF91A2D078C1FA01DC01AA0FBB1F9B0132
:101C9000AC01BF5728F422273327442750781FC0B0
:101CA000B75188F4AB2F0024469537952795011C32
:101CB000A395D2F3002069F0220F331F441FB39580
:101CC000DAF30DD056C961307105A0E88A07B9462C
:101CD00030F49B01AC0166277727882790783096EF
:101CE00021F02083318342835383089536D128F035
:101CF0003BD118F0952309F0EDCEF2CE11243BCF65
:101D000017DFA0F3959FD1F3950F50E0551F629F09
:101D1000F001729FBB27F00DB11D639FAA27F00D44
:101D2000B11DAA1F649F6627B00DA11D661F829F6B
:101D30002227B00DA11D621F739FB00DA11D621F50
:101D4000839FA00D611D221F749F3327A00D611D6D
:101D5000231F849F600D211D822F762F6A2F11244F
:101D60009F5750408AF0E1F088234AF0EE0FFF1FA2
:101D7000BB1F661F771F881F91505040A9F79E3FD9
:101D8000510570F0A7CEF7CE5F3FECF3983EDCF341
:101D9000869577956795B795F795E7959F5FC1F716
:101DA000FE2B880F911D9695879597F90895D5D0AC
:101DB00030F0DAD020F031F49F3F11F41EF490CED1
:101DC0000EF4E095E7FB86CEE92FB2DE80F3BA177A
:101DD000620773078407950718F071F49EF5CACE61
:101DE0000EF4E0950B2EBA2FA02D0B01B901900136
:101DF0000C01CA01A0011124FF27591B99F0593F7A
:101E000050F4503E68F11A16F040A22F232F342FC1
:101E10004427585FF3CF469537952795A795F0400F
:101E20005395C9F77EF41F16BA0B620B730B840B24
:101E3000BAF09150A1F0FF0FBB1F661F771F881FDC
:101E4000C2F70EC0BA0F621F731F841F48F4879534
:101E500077956795B795F7959E3F08F0B3CF939523
:101E6000880F08F09927EE0F9795879508950CD065
:101E700082C07AD040F071D030F021F45F3F19F089
:101E800029CE511178CE2CCE53DE98F39923C9F385
:101E90005523B1F3951B550BBB27AA276217730770
:101EA000840738F09F5F5F4F220F331F441FAA1F24
:101EB000A9F333D00E2E3AF0E0E830D091505040E4
:101EC000E695001CCAF729D0FE2F27D0660F771F92
:101ED000881FBB1F261737074807AB07B0E809F074
:101EE000BB0B802DBF01FF2793585F4F2AF09E3F09
:101EF000510568F0EFCD3FCE5F3FECF3983EDCF349
:101F0000869577956795B795F7959F5FC9F7880F81
:101F1000911D9695879597F90895E1E0660F771FD3
:101F2000881FBB1F621773078407BA0720F0621B64
:101F3000730B840BBA0BEE1F88F7E09508959F3F53
:101F400031F0915020F4879577956795B795880F74
:101F5000911D9695879597F9089500240A94161671
:101F6000170618060906089500240A941216130687
:101F7000140605060895092E0394000C11F4882315
:101F800052F0BB0F40F4BF2B11F460FF04C06F5F31
:0C1F90007F4F8F4F9F4F0895F894FFCFB4
:101F9C00A5C6CAA3D1D38CAF00000000000000007E
:101FAC0000010202030303030404040404040404F4
:101FBC0005050505050505050505050505050505C5
:101FCC0006060606060606060606060606060606A5
:101FDC000606060606060606060606060606060695
:101FEC000707070707070707070707070707070775
:101FFC000707070707070707070707070707070765
:10200C000707070707070707070707070707070754
:10201C000707070707070707070707070707070744
:10202C000808080808080808080808080808080824
:10203C000808080808080808080808080808080814
:10204C000808080808080808080808080808080804
:10205C0008080808080808080808080808080808F4
:10206C0008080808080808080808080808080808E4
:10207C0008080808080808080808080808080808D4
:10208C0008080808080808080808080808080808C4
:10209C0008080808080808080808080808080808B4
:00000001FF
